{
  "_format": "hh-sol-artifact-1",
  "contractName": "SimpleBank",
  "sourceName": "contracts/simpleSolidityBank.sol",
  "abi": [
    {
      "inputs": [],
      "stateMutability": "nonpayable",
      "type": "constructor"
    },
    {
      "anonymous": false,
      "inputs": [
        {
          "indexed": false,
          "internalType": "address",
          "name": "entitiesAddr",
          "type": "address"
        },
        {
          "indexed": false,
          "internalType": "uint256",
          "name": "amountDeposited",
          "type": "uint256"
        }
      ],
      "name": "LogDepositMade",
      "type": "event"
    },
    {
      "stateMutability": "nonpayable",
      "type": "fallback"
    },
    {
      "inputs": [],
      "name": "balance",
      "outputs": [
        {
          "internalType": "uint256",
          "name": "currentBalance",
          "type": "uint256"
        }
      ],
      "stateMutability": "view",
      "type": "function"
    },
    {
      "inputs": [],
      "name": "deposit",
      "outputs": [
        {
          "internalType": "uint256",
          "name": "currentBalance",
          "type": "uint256"
        }
      ],
      "stateMutability": "payable",
      "type": "function"
    },
    {
      "inputs": [],
      "name": "owner",
      "outputs": [
        {
          "internalType": "address",
          "name": "",
          "type": "address"
        }
      ],
      "stateMutability": "view",
      "type": "function"
    },
    {
      "inputs": [
        {
          "internalType": "uint256",
          "name": "withdrawAmount",
          "type": "uint256"
        }
      ],
      "name": "withdraw",
      "outputs": [
        {
          "internalType": "uint256",
          "name": "currentBalance",
          "type": "uint256"
        }
      ],
      "stateMutability": "nonpayable",
      "type": "function"
    }
  ],
  "bytecode": "0x608060405234801561001057600080fd5b50336000806101000a81548173ffffffffffffffffffffffffffffffffffffffff021916908373ffffffffffffffffffffffffffffffffffffffff1602179055506106c3806100606000396000f3fe6080604052600436106100435760003560e01c80632e1a7d4d146100d85780638da5cb5b14610115578063b69ef8a814610140578063d0e30db01461016b57610044565b5b34801561005057600080fd5b50600036606082828080601f016020809104026020016040519081016040528093929190818152602001838380828437600081840152601f19601f8201169050808301925050505050505090506040517f08c379a00000000000000000000000000000000000000000000000000000000081526004016100cf90610507565b60405180910390fd5b3480156100e457600080fd5b506100ff60048036038101906100fa9190610455565b610189565b60405161010c9190610527565b60405180910390f35b34801561012157600080fd5b5061012a6102ff565b60405161013791906104c3565b60405180910390f35b34801561014c57600080fd5b50610155610323565b6040516101629190610527565b60405180910390f35b61017361036a565b6040516101809190610527565b60405180910390f35b600081600160003373ffffffffffffffffffffffffffffffffffffffff1673ffffffffffffffffffffffffffffffffffffffff16815260200190815260200160002054106102b85781600160003373ffffffffffffffffffffffffffffffffffffffff1673ffffffffffffffffffffffffffffffffffffffff168152602001908152602001600020600082825461022091906105a9565b925050819055503373ffffffffffffffffffffffffffffffffffffffff166108fc839081150290604051600060405180830381858888f193505050506102b75781600160003373ffffffffffffffffffffffffffffffffffffffff1673ffffffffffffffffffffffffffffffffffffffff16815260200190815260200160002060008282546102af9190610553565b925050819055505b5b600160003373ffffffffffffffffffffffffffffffffffffffff1673ffffffffffffffffffffffffffffffffffffffff168152602001908152602001600020549050919050565b60008054906101000a900473ffffffffffffffffffffffffffffffffffffffff1681565b6000600160003373ffffffffffffffffffffffffffffffffffffffff1673ffffffffffffffffffffffffffffffffffffffff16815260200190815260200160002054905090565b600034600160003373ffffffffffffffffffffffffffffffffffffffff1673ffffffffffffffffffffffffffffffffffffffff16815260200190815260200160002060008282546103bb9190610553565b925050819055507fa8126f7572bb1fdeae5b5aa9ec126438b91f658a07873f009d041ae690f3a19333346040516103f39291906104de565b60405180910390a1600160003373ffffffffffffffffffffffffffffffffffffffff1673ffffffffffffffffffffffffffffffffffffffff16815260200190815260200160002054905090565b60008135905061044f81610676565b92915050565b60006020828403121561046b5761046a610648565b5b600061047984828501610440565b91505092915050565b61048b816105dd565b82525050565b600061049e601b83610542565b91506104a98261064d565b602082019050919050565b6104bd8161060f565b82525050565b60006020820190506104d86000830184610482565b92915050565b60006040820190506104f36000830185610482565b61050060208301846104b4565b9392505050565b6000602082019050818103600083015261052081610491565b9050919050565b600060208201905061053c60008301846104b4565b92915050565b600082825260208201905092915050565b600061055e8261060f565b91506105698361060f565b9250827fffffffffffffffffffffffffffffffffffffffffffffffffffffffffffffffff0382111561059e5761059d610619565b5b828201905092915050565b60006105b48261060f565b91506105bf8361060f565b9250828210156105d2576105d1610619565b5b828203905092915050565b60006105e8826105ef565b9050919050565b600073ffffffffffffffffffffffffffffffffffffffff82169050919050565b6000819050919050565b7f4e487b7100000000000000000000000000000000000000000000000000000000600052601160045260246000fd5b600080fd5b7f746869732066756e6374696f6e20646f65736e27742065786973740000000000600082015250565b61067f8161060f565b811461068a57600080fd5b5056fea2646970667358221220058851ae5bb3dde675b87605d787788b1f3e042bca27785a6ab32e0990f4839364736f6c63430008050033",
  "linkReferences": {},
  "deployedLinkReferences": {}
}